:020000040800F2
:100000000000022085080008ED070008F507000839
:10001000FD070008050800080D08000800000000A2
:1000200000000000000000000000000015080008AB
:100030002308000800000000310800083F080008FD
:10004000D5080008D5080008D5080008D50800081C
:10005000D5080008D5080008D5080008D50800080C
:10006000D5080008D5080008D5080008D5080008FC
:10007000D5080008D5080008D5080008D5080008EC
:10008000D5080008D5080008D508000800000000C1
:10009000000000000000000000000000D50800087B
:1000A000D50800084D080008D5080008D508000844
:1000B000D5080008D5080008D5080008D5080008AC
:1000C000D5080008D5080008D5080008D50800089C
:1000D000D5080008D5080008D50800080000000071
:1000E000D5080008D5080008D50800080000000061
:1000F000000000000000000000000000D50800081B
:1001000000000000D5080008D5080008D508000840
:1001100000000000000000000000000000000000DF
:10012000D5080008D5080008D5080008D50800083B
:10013000D5080008000000000000000000000000DA
:10014000000000000000000000000000D5080008CA
:10015000D5080008D5080008D5080008D50800080B
:10016000D5080008D50800080000000000000000C5
:10017000000000000000000000000000000000007F
:1001800000000000D508000800000000000000008A
:08019000D5080008D50800089D
:1001980010B5054C237833B9044B13B10448AFF3B9
:1001A80000800123237010BD0C0000200000000017
:1001B800D41F000808B5034B1BB103490348AFF32C
:1001C800008008BD0000000010000020D41F0008B7
:1001D80053B94AB9002908BF00281CBF4FF0FF31A6
:1001E8004FF0FF3000F088B9ADF1080C6DE904CE8E
:1001F80000F006F8DDF804E0DDE9022304B07047FA
:100208002DE9F047089D0F4604468C46002B48D13F
:100218008A42164661D9B2FA82F34BB1C3F1200281
:1002280001FA03FC20FA02F29E4042EA0C0C9C40C0
:100238004FEA164EB7B2BCFBFEF1220C0EFB11CCF6
:1002480042EA0C4201FB07F0904209D9B21801F1C9
:10025800FF3C80F0EE80904240F2EB80023932445D
:10026800121AA4B2B2FBFEF00EFB102244EA0244BA
:1002780000FB07F7A74209D9341900F1FF3280F0D3
:10028800DA80A74240F2D7803444023840EA01407D
:10029800E41B00211DB1DC400023C5E90043BDE893
:1002A800F0878B4206D90DB1C5E900010021084647
:1002B800BDE8F087B3FA83F1002948D1BB4202D3E5
:1002C800824200F20781841A67EB030201209446F8
:1002D800002DE4D0C5E9004CE1E7002A00F0928047
:1002E800B2FA82F3002B40F0A8808A1A4FEA164E21
:1002F8001FFA86FC0121200CB2FBFEF70EFB172229
:1003080040EA02420CFB07F0904207D9B21807F105
:10031800FF3802D2904200F2E2804746121AA4B295
:10032800B2FBFEF00EFB102244EA02440CFB00FC78
:10033800A44507D9341900F1FF3202D2A44500F2CE
:10034800CB801046A4EB0C0440EA0740A2E7C1F1B9
:1003580020068B4022FA06FC4CEA030C07FA01F44B
:1003680020FA06F3F7404FEA1C49234300FA01F844
:100378001FFA8CFEB7FBF9F01C0C09FB107744EA56
:10038800074400FB0EF7A74202FA01F20AD91CEB58
:10039800040400F1FF3A80F09B80A74240F2988065
:1003A80002386444E41B9FB2B4FBF9F309FB13441D
:1003B80047EA044403FB0EFEA64509D91CEB0404D6
:1003C80003F1FF3780F08280A6457FD9023B644461
:1003D80043EA0040A4EB0E04A0FB02E7BC427346CC
:1003E800B94663D360D05DB1B8EB030264EB09048E
:1003F80004FA06F622FA01F31E43CC40C5E900646C
:1004080000214CE76208480842EAC1710B0C43EA34
:1004180000438AB242EA0342B3FBF6F1E407B4466A
:100428003746B6461F23B0FBF6F0D21B41EA00411F
:1004380061E7614614E7104628E7C3F1200120FA76
:1004480001F29E4027FA01F19F403A434FEA164EC7
:100458001FFA86FCB1FBFEF70EFB1710110C41EAE0
:10046800004107FB0CF8884504FA03F43AD97118DF
:1004780007F1FF3001D288451FD8A1EB0801B1FB75
:10048800FEF808FB0CF70EFB181192B242EA014283
:10049800BA422FD2B21808F1FF31C6D2BA42C4D23A
:1004A800A8F102013244C0E7F0459CD2BEEB02033A
:1004B80067EB0C070138B94695E7A6EB08084144F5
:1004C800B81EB1FBFEF808FB0CF7DCE73B467FE7FC
:1004D800504667E70846FBE63444023832E7023FF5
:1004E80032441BE7A1EB08013846B1FBFEF808FBD4
:1004F8000CF7C8E7414698E7704700BF80B483B05F
:1005080000AF786000BF0C37BD465DF8047B7047CC
:1005180080B500AF00F0DCF900F010F800F0C8F882
:1005280000F074F84FF40051034800F016FD642001
:1005380000F040FA00BFF5E70008024080B594B02B
:1005480000AF07F1200330220021184601F012FD08
:1005580007F10C0300221A605A609A60DA601A6187
:100568000023BB60274B1B6C264A43F0805313645F
:10057800244B1B6C03F08053BB60BB6800237B607B
:10058800214B1B68204A43F4404313601E4B1B68F1
:1005980003F440437B607B6802233B620123FB62D8
:1005A80010233B630223BB630023FB6308233B64E4
:1005B80040237B640223BB640423FB6407F120030C
:1005C800184600F0E5FC0346002B01D000F0B4F813
:1005D8000F23FB6002233B6100237B614FF48053B0
:1005E800BB610023FB6107F10C030021184600F0F2
:1005F80047FF0346002B01D000F09EF800BF50379C
:10060800BD4680BD003802400070004080B586B00D
:1006180000AF07F1080300221A605A609A60DA6096
:100628003B4600221A605A601F4B204A1A601E4B34
:100638004FF6FF125A601C4B00229A601A4B40F288
:10064800F312DA60184B00221A61174B00225A6124
:10065800154B00229A61144801F0BCF80346002BA0
:1006680001D000F069F84FF48053BB6007F108032C
:1006780019460D4801F0EDF90346002B01D000F0B2
:100688005BF800233B6000237B603B461946064825
:1006980001F0EEFB0346002B01D000F04DF800BF3F
:1006A8001837BD4680BD00BF28000020000001406B
:1006B80080B588B000AF07F10C0300221A605A60B9
:1006C8009A60DA601A610023BB60194B1B6B184AE9
:1006D80043F004031363164B1B6B03F00403BB6066
:1006E800BB6800237B60124B1B6B114A43F001036C
:1006F80013630F4B1B6B03F001037B607B680022C5
:100708004FF400510B4800F00FFC4FF40053FB600E
:1007180001233B6100237B610023BB6107F10C03CC
:100728001946044800F07CFA00BF2037BD4680BD5A
:10073800003802400008024080B400AF72B600BF23
:1007480000BFFDE780B483B000AF00237B60104B8F
:100758005B6C0F4A43F4804353640D4B5B6C03F4AA
:1007680080437B607B6800233B60094B1B6C084A15
:1007780043F080531364064B1B6C03F080533B60BB
:100788003B6800BF0C37BD465DF8047B704700BF6F
:100798000038024080B584B000AF78607B681B6881
:1007A8000E4A934215D10023FB600D4B5B6C0C4A3B
:1007B80043F0010353640A4B5B6C03F00103FB60D5
:1007C800FB6800220221192000F0F3F9192000F03B
:1007D8000CFA00BF1037BD4680BD00BF00000140C5
:1007E8000038024080B400AF00BFFDE780B400AF1E
:1007F80000BFFDE780B400AF00BFFDE780B400AFE5
:1008080000BFFDE780B400AF00BFFDE780B400AFD4
:1008180000BFBD465DF8047B704780B400AF00BFE1
:10082800BD465DF8047B704780B400AF00BFBD468D
:100838005DF8047B704780B500AF00F09BF800BFFF
:1008480080BD000080B500AF024801F012F800BF7B
:1008580080BD00BF2800002080B400AF064BD3F84D
:100868008830054A43F47003C2F8883000BFBD469B
:100878005DF8047B704700BF00ED00E0DFF834D07E
:10088800FFF7EAFF0C480D490D4A002302E0D4584F
:10089800C4500433C4188C42F9D30A4A0A4C0023C2
:1008A80001E013600432A242FBD301F06BFBFFF7B7
:1008B8002FFE704700000220000000200C000020DE
:1008C8000C2000080C00002074000020FEE7000047
:1008D80080B500AF0E4B1B680D4A43F400731360DC
:1008E8000B4B1B680A4A43F480631360084B1B6870
:1008F800074A43F480731360032000F04FF90F2078
:1009080000F008F8FFF71EFF0023184680BD00BF5F
:10091800003C024080B582B000AF7860124B1A6884
:10092800124B1B7819464FF47A73B3FBF1F3B2FB01
:10093800F3F3184600F067F90346002B01D00123B2
:100948000EE07B680F2B0AD8002279684FF0FF3041
:1009580000F02FF9064A7B681360002300E00123AA
:1009680018460837BD4680BD00000020080000205A
:100978000400002080B400AF064B1B781A46064BD3
:100988001B681344044A136000BFBD465DF8047B2E
:10099800704700BF080000207000002080B400AF3E
:1009A800034B1B681846BD465DF8047B704700BFC3
:1009B8007000002080B584B000AF7860FFF7EEFFCC
:1009C800B8607B68FB60FB68B3F1FF3F05D00A4B5A
:1009D8001B781A46FB681344FB6000BFFFF7DEFF75
:1009E8000246BB68D31AFA689A42F7D800BF00BF1C
:1009F8001037BD4680BD00BF0800002080B485B018
:100A080000AF78607B6803F00703FB600C4BDB6882
:100A1800BB60BA684FF6FF031340BB60FB681A025D
:100A2800BB68134343F0BF6343F40033BB60044A1D
:100A3800BB68D36000BF1437BD465DF8047B7047C0
:100A480000ED00E080B400AF044BDB681B0A03F044
:100A580007031846BD465DF8047B704700ED00E0CB
:100A680080B483B000AF0346FB7197F90730002BC1
:100A78000BDBFB7903F01F02074997F907305B0985
:100A8800012000FA02F241F8232000BF0C37BD46CE
:100A98005DF8047B704700BF00E100E080B483B0DC
:100AA80000AF03463960FB7197F90730002B0ADB6A
:100AB8003B68DAB20C4997F907301201D2B20B44FD
:100AC80083F800230AE03B68DAB20849FB7903F0AF
:100AD8000F03043B1201D2B20B441A7600BF0C3745
:100AE800BD465DF8047B704700E100E000ED00E0E2
:100AF80080B489B000AFF860B9607A60FB6803F031
:100B08000703FB61FB69C3F10703042B28BF042318
:100B1800BB61FB690433062B02D9FB69033B00E088
:100B280000237B614FF0FF32BB6902FA03F3DA431B
:100B3800BB681A407B699A404FF0FF317B6901FA24
:100B480003F3D9437B680B40134318462437BD464B
:100B58005DF8047B7047000080B582B000AF786014
:100B68007B68013BB3F1807F01D301230FE00A4A80
:100B78007B68013B53600F214FF0FF30FFF78EFF7A
:100B8800054B00229A60044B07221A60002318467E
:100B98000837BD4680BD00BF10E000E080B582B0D8
:100BA80000AF78607868FFF729FF00BF0837BD46B7
:100BB80080BD80B586B000AF0346B9607A60FB732C
:100BC80000237B61FFF73EFF78617A68B96878692E
:100BD800FFF78EFF024697F90F3011461846FFF7C8
:100BE8005DFF00BF1837BD4680BD80B582B000AF3D
:100BF8000346FB7197F907301846FFF731FF00BF2E
:100C08000837BD4680BD80B582B000AF786078688F
:100C1800FFF7A2FF034618460837BD4680BD00000F
:100C280080B489B000AF7860396000237B6100230D
:100C38003B610023BB610023FB6159E10122FB6991
:100C480002FA03F37B613B681B687A6913403B61D6
:100C58003A697B699A4240F048813B685B6803F0D7
:100C68000303012B05D03B685B6803F00303022BE9
:100C780030D17B689B68BB61FB695B00032202FA89
:100C880003F3DB43BA691340BB613B68DA68FB696D
:100C98005B0002FA03F3BA691343BB617B68BA6964
:100CA8009A607B685B68BB610122FB6902FA03F307
:100CB800DB43BA691340BB613B685B681B0903F0FF
:100CC8000102FB6902FA03F3BA691343BB617B684B
:100CD800BA695A603B685B6803F00303032B17D0BB
:100CE8007B68DB68BB61FB695B00032202FA03F3E4
:100CF800DB43BA691340BB613B689A68FB695B00D8
:100D080002FA03F3BA691343BB617B68BA69DA6014
:100D18003B685B6803F00303022B23D1FB69DA0805
:100D28007B68083253F82230BB61FB6903F0070384
:100D38009B000F2202FA03F3DB43BA691340BB613D
:100D48003B681A69FB6903F007039B0002FA03F387
:100D5800BA691343BB61FB69DA087B680832B96971
:100D680043F822107B681B68BB61FB695B000322A8
:100D780002FA03F3DB43BA691340BB613B685B6863
:100D880003F00302FB695B0002FA03F3BA69134339
:100D9800BB617B68BA691A603B685B6803F44033DF
:100DA800002B00F0A2800023FB60574B5B6C564A77
:100DB80043F480435364544B5B6C03F48043FB60FF
:100DC800FB68524AFB699B08023352F82330BB6127
:100DD800FB6903F003039B000F2202FA03F3DB43D2
:100DE800BA691340BB617B68494A934219D07B6852
:100DF800484A934213D07B68474A93420DD07B6898
:100E0800464A934207D07B68454A934201D104235E
:100E180008E0072306E0032304E0022302E001239D
:100E280000E00023FA6902F0030292009340BA69D5
:100E38001343BB613549FB699B080233BA6941F822
:100E48002320384B9B68BB613B69DB43BA6913407D
:100E5800BB613B685B6803F48013002B03D0BA695D
:100E68003B691343BB612F4ABB6993602D4BDB6819
:100E7800BB613B69DB43BA691340BB613B685B6894
:100E880003F40013002B03D0BA693B691343BB6119
:100E9800244ABB69D360234B5B68BB613B69DB4376
:100EA800BA691340BB613B685B6803F40033002BED
:100EB80003D0BA693B691343BB611A4ABB695360E3
:100EC800184B1B68BB613B69DB43BA691340BB61C4
:100ED8003B685B6803F48033002B03D0BA693B6935
:100EE8001343BB610F4ABB691360FB690133FB61A4
:100EF800FB690F2B7FF6A2AE00BF00BF2437BD46AB
:100F08005DF8047B704700BF00380240003801409C
:100F1800000002400004024000080240000C0240A9
:100F280000100240003C014080B483B000AF7860FC
:100F38000B467B8013467B707B78002B03D07A8826
:100F48007B689A6103E07B881A047B689A6100BF1A
:100F58000C37BD465DF8047B704780B485B000AFA0
:100F680078600B467B807B685B69FB607A88FB68EE
:100F780013401A04FB68D9437B880B401A437B68EB
:100F88009A6100BF1437BD465DF8047B70470000C6
:100F980080B586B000AF78607B68002B01D1012353
:100FA80067E27B681B6803F00103002B75D0884B50
:100FB8009B6803F00C03042B0CD0854B9B6803F053
:100FC8000C03082B12D1824B5B6803F48003B3F542
:100FD800800F0BD17E4B1B6803F40033002B5BD0D2
:100FE8007B685B68002B57D1012342E27B685B6812
:100FF800B3F5803F06D1764B1B68754A43F48033BE
:1010080013601DE07B685B68B3F5A02F0CD1704BB3
:101018001B686F4A43F4802313606D4B1B686C4A4E
:1010280043F4803313600BE0694B1B68684A23F470
:1010380080331360664B1B68654A23F48023136072
:101048007B685B68002B13D0FFF7A8FC386108E0C9
:10105800FFF7A4FC02463B69D31A642B01D903238A
:1010680007E25B4B1B6803F40033002BF0D014E05D
:10107800FFF794FC386108E0FFF790FC02463B69F3
:10108800D31A642B01D90323F3E1514B1B6803F4F2
:101098000033002BF0D100E000BF7B681B6803F031
:1010A8000203002B63D04A4B9B6803F00C03002B10
:1010B8000BD0474B9B6803F00C03082B1CD1444B07
:1010C8005B6803F48003002B16D1414B1B6803F0C7
:1010D8000203002B05D07B68DB68012B01D00123BC
:1010E800C7E13B4B1B6823F0F8027B681B69DB00F8
:1010F800374913430B603AE07B68DB68002B20D04C
:10110800344B01221A60FFF749FC386108E0FFF709
:1011180045FC02463B69D31A022B01D90323A8E1F7
:101128002B4B1B6803F00203002BF0D0284B1B68E5
:1011380023F0F8027B681B69DB00254913430B6029
:1011480015E0244B00221A60FFF728FC386108E0FC
:10115800FFF724FC02463B69D31A022B01D903236B
:1011680087E11B4B1B6803F00203002BF0D17B685F
:101178001B6803F00803002B36D07B685B69002BE3
:1011880016D0154B01221A60FFF708FC386108E0F9
:10119800FFF704FC02463B69D31A022B01D903234B
:1011A80067E10B4B5B6F03F00203002BF0D01BE0F1
:1011B800094B00221A60FFF7F1FB38610EE0FFF7D8
:1011C800EDFB02463B69D31A022B07D9032350E1F2
:1011D8000038024000004742800E4742884B5B6F50
:1011E80003F00203002BEAD17B681B6803F00403B9
:1011F800002B00F097800023FB75814B1B6C03F0DC
:101208008053002B0FD10023BB607D4B1B6C7C4AA5
:1012180043F0805313647A4B1B6C03F08053BB601C
:10122800BB680123FB75774B1B6803F48073002BA5
:1012380018D1744B1B68734A43F480731360FFF72B
:10124800ADFB386108E0FFF7A9FB02463B69D31AFA
:10125800022B01D903230CE16A4B1B6803F480734A
:10126800002BF0D07B689B68012B06D1644B1B6F69
:10127800634A43F0010313671CE07B689B68052BF6
:101288000CD15F4B1B6F5E4A43F0040313675C4B42
:101298001B6F5B4A43F0010313670BE0584B1B6F4E
:1012A800574A23F001031367554B1B6F544A23F029
:1012B800040313677B689B68002B15D0FFF76EFB50
:1012C80038610AE0FFF76AFB02463B69D31A41F22C
:1012D8008832934201D90323CBE0494B1B6F03F0BB
:1012E8000203002BEED014E0FFF758FB38610AE048
:1012F800FFF754FB02463B69D31A41F28832934206
:1013080001D90323B5E03E4B1B6F03F00203002B0A
:10131800EED1FB7D012B05D1394B1B6C384A23F0EC
:10132800805313647B689B69002B00F0A180344BC9
:101338009B6803F00C03082B5CD07B689B69022B2D
:1013480041D1314B00221A60FFF728FB386108E0D1
:10135800FFF724FB02463B69D31A022B01D903236A
:1013680087E0274B1B6803F00073002BF0D17B68E4
:10137800DA697B681B6A1A437B685B6A9B011A43BC
:101388007B689B6A5B08013B1B041A437B68DB6A2A
:101398001B061B4913434B601B4B01221A60FFF7C6
:1013A800FDFA386108E0FFF7F9FA02463B69D31AFB
:1013B800022B01D903235CE0114B1B6803F0007377
:1013C800002BF0D054E0104B00221A60FFF7E6FA29
:1013D800386108E0FFF7E2FA02463B69D31A022BAC
:1013E80001D9032345E0064B1B6803F00073002B6B
:1013F800F0D13DE07B689B69012B07D1012338E0E0
:101408000038024000700040600047421B4B5B6898
:10141800FB607B689B69012B28D0FB6803F4800282
:101428007B68DB699A4221D1FB6803F03F027B6845
:101438001B6A9A421AD1FA6847F6C07313407A6851
:10144800526A9201934211D1FB6803F440327B68DF
:101458009B6A5B08013B1B049A4207D1FB6803F0B7
:1014680070627B68DB6A1B069A4201D0012300E0A8
:10147800002318461837BD4680BD00BF003802401B
:1014880080B584B000AF786039607B68002B01D1EB
:101498000123CCE0684B1B6803F007033A689A42C3
:1014A8000CD9654B3A68D2B21A70634B1B6803F0CB
:1014B80007033A689A4201D00123B8E07B681B68A9
:1014C80003F00203002B20D07B681B6803F00403A1
:1014D800002B05D0594B9B68584A43F4E05393605E
:1014E8007B681B6803F00803002B05D0534B9B68EF
:1014F800524A43F460439360504B9B6823F0F002D8
:101508007B689B684D4913438B607B681B6803F0BD
:101518000103002B44D07B685B68012B07D1474B44
:101528001B6803F40033002B19D101237FE07B688B
:101538005B68022B03D07B685B68032B07D13F4BAA
:101548001B6803F00073002B09D101236FE03B4BAC
:101558001B6803F00203002B01D1012367E0374B1E
:101568009B6823F003027B685B68344913438B60F4
:10157800FFF714FAF8600AE0FFF710FA0246FB6872
:10158800D31A41F28832934201D903234FE02B4BFF
:101598009B6803F00C027B685B689B009A42EBD166
:1015A800254B1B6803F007033A689A420CD2224B7A
:1015B8003A68D2B21A70204B1B6803F007033A68E6
:1015C8009A4201D0012332E07B681B6803F00403D0
:1015D800002B08D0194B9B6823F4E0527B68DB682A
:1015E800164913438B607B681B6803F00803002BC4
:1015F80009D0124B9B6823F460427B681B69DB00AF
:101608000E4913438B6000F021F802460B4B9B6890
:101618001B0903F00F030A49CB5C22FA03F3094ABA
:101628001360094B1B681846FFF774F90023184626
:101638001037BD4680BD00BF003C02400038024064
:10164800EC1F000800000020040000202DE9B04F26
:1016580090B000AF00237B630023FB6300233B6350
:101668000023BB63584B9B6803F00C03082B0DD079
:10167800082B00F2A080002B02D0042B03D09AE0A4
:10168800524BBB639AE0524BBB6397E04E4B5B688F
:1016980003F03F037B634C4B5B6803F48003002B30
:1016A80027D0494B5B689B0900223B627A623B6A00
:1016B800C3F308000021464B03FB01F2002300FBA3
:1016C80003F31344424AA0FB0221F962BA62FA6AA0
:1016D8001344FB627B6B0022BB61FA61D7E90623E6
:1016E800D7E90A01FEF774FD02460B461346FB6371
:1016F80053E0354B5B689B0900223B617A613B698B
:10170800C3F3080A4FF0000B52465B464FF0000047
:101718004FF00001590141EAD261500102460B46DF
:10172800B2EB0A0863EB0B094FF000024FF000031D
:101738004FEA891343EA98634FEA8812B2EB080428
:1017480063EB09054FF000024FF00003EB0043EA9A
:101758005473E20014461D4614EB0A033B6045EB44
:101768000B037B604FF000024FF00003D7E9004500
:1017780029468B02214643EA915321468A021046A4
:1017880019467B6B0022BB60FA60D7E90223FEF79B
:101798001FFD02460B461346FB630B4B5B681B0C95
:1017A80003F0030301335B003B63FA6B3B6BB2FB53
:1017B800F3F3BB6302E0054BBB6300BFBB6B18468A
:1017C8004037BD46BDE8B08F003802400024F40021
:1017D80040787D0180B582B000AF78607B68002BCF
:1017E80001D1012341E07B6893F83D30DBB2002B47
:1017F80006D17B68002283F83C207868FEF7CAFF90
:101808007B68022283F83D207B681A687B68043372
:101818001946104600F00CFA7B68012283F846202E
:101828007B68012283F83E207B68012283F83F20F1
:101838007B68012283F840207B68012283F84120DD
:101848007B68012283F842207B68012283F84320C9
:101858007B68012283F844207B68012283F84520B5
:101868007B68012283F83D20002318460837BD46CF
:1018780080BD80B584B000AF78607B681B68DB688A
:10188800FB607B681B681B69BB60BB6803F00203D5
:10189800002B20D0FB6803F00203002B1BD07B68D1
:1018A8001B686FF002021A617B6801221A777B6855
:1018B8001B689B6903F00303002B03D0786800F0D2
:1018C80099F905E0786800F08BF9786800F09CF9E0
:1018D8007B6800221A77BB6803F00403002B20D032
:1018E800FB6803F00403002B1BD07B681B686FF0B8
:1018F80004021A617B6802221A777B681B689B695D
:1019080003F44073002B03D0786800F073F905E006
:10191800786800F065F9786800F076F97B6800224D
:101928001A77BB6803F00803002B20D0FB6803F08C
:101938000803002B1BD07B681B686FF008021A6134
:101948007B6804221A777B681B68DB6903F0030352
:10195800002B03D0786800F04DF905E0786800F0B6
:101968003FF9786800F050F97B6800221A77BB6865
:1019780003F01003002B20D0FB6803F01003002BAA
:101988001BD07B681B686FF010021A617B68082205
:101998001A777B681B68DB6903F44073002B03D05C
:1019A800786800F027F905E0786800F019F9786898
:1019B80000F02AF97B6800221A77BB6803F001035C
:1019C800002B0CD0FB6803F00103002B07D07B68C9
:1019D8001B686FF001021A617868FEF78FFDBB681B
:1019E80003F08003002B0CD0FB6803F08003002B6E
:1019F80007D07B681B686FF080021A61786800F076
:101A0800AFFABB6803F04003002B0CD0FB6803F06F
:101A18004003002B07D07B681B686FF040021A61F7
:101A2800786800F0FBF8BB6803F02003002B0CD0AB
:101A3800FB6803F02003002B07D07B681B686FF05E
:101A480020021A61786800F081FA00BF1037BD469D
:101A580080BD80B584B000AF786039600023FB7327
:101A68007B6893F83C30012B01D10223B4E07B68FA
:101A7800012283F83C207B68022283F83D207B68A2
:101A88001B689B68BB60BB6823F07703BB60BB68BF
:101A980023F47F43BB607B681B68BA689A603B6825
:101AA8001B68B3F5005F3ED0B3F5005F00F2878096
:101AB800B3F5805F00F08680B3F5805F7FD8702B28
:101AC8001AD0702B7BD8602B50D0602B77D8502B36
:101AD8003CD0502B73D8402B58D0402B6FD8302B8C
:101AE80064D0302B6BD8202B60D0202B67D8002BEC
:101AF8005CD0102B5AD062E07B6818683B68996804
:101B08003B685A683B68DB6800F092F97B681B68A1
:101B18009B68BB60BB6843F07703BB607B681B684E
:101B2800BA689A604FE07B6818683B6899683B68B8
:101B38005A683B68DB6800F07BF97B681B689A6829
:101B48007B681B6842F480429A603CE07B681868B6
:101B58003B6859683B68DB681A4600F0EFF87B6819
:101B68001B685021184600F048F92CE07B6818687B
:101B78003B6859683B68DB681A4600F00EF97B68D9
:101B88001B686021184600F038F91CE07B6818686B
:101B98003B6859683B68DB681A4600F0CFF87B68F9
:101BA8001B684021184600F028F90CE07B681A6889
:101BB8003B681B681946104600F01FF903E0012333
:101BC800FB7300E000BF7B68012283F83D207B683F
:101BD800002283F83C20FB7B18461037BD4680BDA9
:101BE80080B483B000AF786000BF0C37BD465DF8A5
:101BF800047B704780B483B000AF786000BF0C37B7
:101C0800BD465DF8047B704780B483B000AF786050
:101C180000BF0C37BD465DF8047B704780B483B0C5
:101C280000AF786000BF0C37BD465DF8047B704795
:101C380080B485B000AF786039607B681B68FB6052
:101C48007B68374A93420FD07B68B3F1804F0BD043
:101C58007B68344A934207D07B68334A934203D067
:101C68007B68324A934208D1FB6823F07003FB601B
:101C78003B685B68FA681343FB607B68284A9342B9
:101C88001BD07B68B3F1804F17D07B68254A9342FD
:101C980013D07B68244A93420FD07B68234A93422F
:101CA8000BD07B68224A934207D07B68214A934233
:101CB80003D07B68204A934208D1FB6823F4407321
:101CC800FB603B68DB68FA681343FB60FB6823F042
:101CD80080023B685B691343FB603B689A687B68DA
:101CE800DA623B681A687B689A627B680C4A93429E
:101CF80003D13B681A697B681A637B681B6843F0E9
:101D080004027B681A607B6801225A617B68FA6862
:101D18001A6000BF1437BD465DF8047B704700BFEA
:101D2800000001400004004000080040000C004092
:101D380000400140004401400048014080B487B0A1
:101D480000AFF860B9607A60FB681B6A7B61FB686A
:101D58001B6A23F00102FB681A62FB689B693B61FE
:101D68003B6923F0F0033B617B681B013A6913432D
:101D78003B617B6923F00A037B617A69BB68134383
:101D88007B61FB683A699A61FB687A691A6200BFED
:101D98001C37BD465DF8047B704780B487B000AF40
:101DA800F860B9607A60FB681B6A7B61FB681B6A34
:101DB80023F01002FB681A62FB689B693B613B6970
:101DC80023F470433B617B681B033A6913433B610F
:101DD8007B6923F0A0037B61BB681B017A6913430D
:101DE8007B61FB683A699A61FB687A691A6200BF8D
:101DF8001C37BD465DF8047B704780B485B000AFE2
:101E0800786039607B689B68FB60FB6823F070032F
:101E1800FB603A68FB68134343F00703FB607B6889
:101E2800FA689A6000BF1437BD465DF8047B7047B6
:101E380080B487B000AFF860B9607A603B60FB6837
:101E48009B687B617B6923F47F437B613B681A0253
:101E58007B681A43BB6813437A6913437B61FB6849
:101E68007A699A6000BF1C37BD465DF8047B7047ED
:101E780080B485B000AF786039607B6893F83C30F7
:101E8800012B01D1022350E07B68012283F83C201A
:101E98007B68022283F83D207B681B685B68FB60D7
:101EA8007B681B689B68BB60FB6823F07003FB6062
:101EB8003B681B68FA681343FB607B681B68FA6819
:101EC8005A607B681B681C4A934218D07B681B6861
:101ED800B3F1804F13D07B681B68184A93420ED029
:101EE8007B681B68164A934209D07B681B68154AB1
:101EF800934204D07B681B68134A93420CD1BB6899
:101F080023F08003BB603B685B68BA681343BB601F
:101F18007B681B68BA689A607B68012283F83D2059
:101F28007B68002283F83C20002318461437BD46FE
:101F38005DF8047B704700BF0000014000040040CA
:101F480000080040000C00400040014080B483B00D
:101F580000AF786000BF0C37BD465DF8047B704762
:101F680080B483B000AF786000BF0C37BD465DF821
:101F7800047B704702440346934200D1704703F83C
:101F8800011BF9E770B50D4B0D4D5B1B9C1000262E
:101F9800A64209D100F01AF80A4D0B4B5B1B9C10A6
:101FA8000026A64205D170BD55F8043B9847013676
:101FB800EEE755F8043B98470136F2E7042000089D
:101FC800042000080420000808200008F8B500BF15
:101FD800F8BC08BC9E467047F8B500BFF8BC08BC02
:041FE8009E4670475A
:101FEC0000000000000000000102030406070809BD
:081FFC000CE2FF7F0100000070
:04200400BD01000812
:042008009901000832
:0C200C000024F40010000000010000009F
:040000050800088562
:00000001FF
